:020000040800F2
:10000000300A0020850200088D0200088F020008D7
:100010009102000893020008950200080000000009
:10002000000000000000000000000000970200082F
:1000300099020008000000009B0200089D020008D1
:100040009F0200089F0200089F0200089F0200080C
:100050009F0200089F0200089F0200089F020008FC
:100060009F0200089F0200089F0200089F020008EC
:100070009F0200089F0200089F0200089F020008DC
:100080009F0200089F0200089F0200089F020008CC
:100090009F0200089F0200089F0200089F020008BC
:1000A0009F0200089F0200089F0200089F020008AC
:1000B000292600089F0200089F0200089F020008EE
:1000C0009F0200089F0200089F0200089F0200088C
:1000D0009F020008D12900089F0200080D2A00088D
:1000E0009F0200089F0200089F02000800F002F82B
:1000F00000F0B0F80AA090E8000C82448344AAF112
:100100000107DA4501D100F0A5F8AFF2090EBAE80F
:100110000F0013F0010F18BFFB1A43F0010318473B
:10012000FC7700001C7800000A444FF0000C10F827
:10013000013B13F0070408BF10F8014B1D1108BF65
:1001400010F8015B641E05D010F8016B641E01F805
:10015000016BF9D113F0080F1EBF10F8014BAD1C55
:100160000C1B09D16D1E58BF01F801CBFAD505E073
:1001700014F8016B01F8016B6D1EF9D59142D6D3CD
:10018000704700000023002400250026103A28BFF5
:1001900078C1FBD8520728BF30C148BF0B607047F9
:1001A0006E2900F04381702900F08582662904F0F1
:1001B000B181652904F0AE81672904F0AB81612922
:1001C00004F0AA8103681B0A28BF41F08001692955
:1001D00000F0F080642900F0ED80752900F0EA80DD
:1001E0006F2900F01382782900F05182E92900F08C
:1001F000AD81E42900F0AA81F52900F0A781EF295B
:1002000000F01082F82900F050820368DB0928BF53
:1002100041F08001632900F05187732900F056876F
:10022000E32900F06187F32900F06687002070471A
:100230001FB500F0B3FF04000020002103F0B8FE5A
:10024000401C60600020002103F09CFEE0601FBDA8
:1002500010B510BD00F074FF1146FFF7E9FF02F082
:1002600059FF01F04DF803B4FFF7F2FF03BC01F0B2
:1002700095F800004FF07300A0F101000028FBD1B9
:10028000704700000948804709480047FEE7FEE73D
:10029000FEE7FEE7FEE7FEE7FEE7FEE7FEE7FEE736
:1002A00004480549054A064B70470000C925000867
:1002B000ED00000830040020300A00203006002045
:1002C000300600201CB50C46064B7B446946009066
:1002D000204600F0C4F804460020694600F0D2F839
:1002E00020461CBDB701000070477047704770B5CD
:1002F000044685690068C10601D5302600E0202645
:10030000C00707D070BDD4E9012130469047206A6C
:10031000401C20626D1EF6D570BD70B5044685691F
:100320000078C00707D170BDD4E901212020904793
:10033000206A401C20626D1EF6D570BD09684A0512
:1003400001D540B27047C905FCD500B270470968B5
:100350004A0501D5C0B27047C905FCD580B27047C7
:1003600070B50C460546012A05D02878800600D5D0
:10037000EA69002302E0012305E05B1C934202D2FC
:10038000E05C0028F9D1A869E618C01AA861286ABB
:10039000184428622846FFF7AAFF04E0D5E90121A6
:1003A00014F8010B9047B442F8D32846FFF7B5FF85
:1003B00070BD00002DE9F041064600241068752943
:1003C000314616A510D0FFF7B9FF002802DA4042E7
:1003D00013A507E031688A0701D512A502E0490795
:1003E00004D511A5012401E0FFF7B1FF00210A2285
:1003F00006F1240709E0B0FBF2FCB0FBF2F302FBCC
:100400001C00303078541846491C0028F3D123468C
:100410002A463046BDE8F04100F061BA0000000015
:100420002D0000002B000000200000001168026871
:10043000006A530501D508700AE0D30501D508808C
:1004400006E0130603D5C217C1E9000200E0086008
:100450000120704701694A1C02610878704700B5A5
:100460008FB0CDE901310021059105497944CDE9ED
:1004700003101146684600F029F90FB000BD0000D6
:10048000E5FFFFFF0A6802F8010B0A6070470000F1
:100490002DE9FF5F15468A460446DFF8AC80F84434
:1004A0000027D8E900103E46CDE9001010E03AF8E8
:1004B00016106A4602A800F023FE411C07D02178DE
:1004C000890603D5E269391891420DD80744761C94
:1004D0002078800602D5E069B84205DDAE42E6DB51
:1004E0003AF816000028E2D1A069C01BA06120469E
:1004F000FFF7FDFED8E90010CDE90010002017E05D
:100500003AF818106A4602A800F0FAFDB0F1FF3F71
:1005100081460BD000250DF1080B05E0D4E901213F
:100520001BF8050090476D1C4D45F7D308F10100FD
:10053000B0428046E4DB206A384420622046FFF760
:10054000ECFEBDE8FF9F00007E7300002DE9F04146
:100550008046D21D22F007020025D2E90002F529CB
:1005600015A614D0011E72F1000106DA0023D0EBAB
:10057000030063EB020211A608E0D8F800108B0715
:1005800001D50FA602E0490701D50EA601251146A7
:10059000002408F1240704E000F05CF930323A55F9
:1005A000641C50EA0102F7D12B46324621464046F0
:1005B000BDE8F04100F093B9000000002D000000FC
:1005C0002B0000002000000030B4002100F12404C2
:1005D00008E002F00705D208303542EA4372DB0832
:1005E0006554491C52EA0305F3D10468002310A2A4
:1005F000250708D504F020040C4304D0C469012366
:100600000CA2641EC46130BC00F069B910B5044688
:1006100021461068FFF79BFE02462046BDE81040C9
:100620000023D1E7D21D22F00701D1E90023CBE757
:100630000000000030000000F0B40D4601880905FC
:1006400002D5214C7C4402E01F4C7C440E34002136
:1006500000F1240608E002F00F071209E75D42EA04
:1006600003721B097754491C52EA0307F3D102783D
:100670000023120704D5702D06D009B102231134CE
:100680002246F0BC00F02BB901231034F8E770B516
:1006900004460D4621461068FFF759FE02462946DA
:1006A0002046BDE870400023C6E7D21D22F00703B4
:1006B000D3E90023C0E70368126843F02003036016
:1006C0000823C3610023B7E7E07100002DE9F05F64
:1006D000894604464FF0000ADFF874B1FB44C0F8C5
:1006E00020A02046E1688847002874D0252806D03D
:1006F000D4E901219047206A401C2062F1E70026DE
:100700005F462046E16888472028054607DB312DF3
:1007100005D2781910F8200C08B10643F1E7B007AC
:1007200001D526F00406C4F81CA00027C4F818A0C0
:100730002A2D09D0284602F0B5FA38B304EB870811
:10074000303DC8F8185019E059F8041B204604EB56
:1007500087029161E1688847012F054618D1E06959
:10076000002820DA26F020061DE0D8F8180000EB5B
:10077000800005EB40003038C8F818002046E168DA
:100780008847054602F08EFA0028EED1012F0AD0E4
:100790002E2D08D12046E16888477F1C0546022F90
:1007A00046F02006C4DBA069002803DA404246F088
:1007B0000106A061F00701D026F010066C2D0BD0C9
:1007C000682D09D04C2D39D06A2D35D0742D35D0F7
:1007D0007A2D33D016E038E0E1682F46204688476E
:1007E000B842054609D16C2F26D04FF48060E168ED
:1007F000064320468847054604E06C2F1AD04FF484
:10080000807006430DB3A5F14100192802D82035A8
:1008100046F400664A462946204626604E46FFF7C3
:10082000BFFC80B101280BD0F61D26F0070000F1B7
:10083000080956E74020E4E78020D8E70020D6E703
:1008400006F104094DE7284652E7206ABDE8F09F0B
:100850007071000030B5B0F10A024FEA900E71F1EC
:1008600000034EEA817EB0EB0E0061EB91014FEA8E
:10087000101E4EEA017E10EB0E0041EB11114FEA03
:10088000102E4EEA016E10EB0E0041EB11214FEAE3
:10089000104E4EEA014E10EB0E0041EB1141401894
:1008A00041F100014FEAD00040EA41704FEAD10126
:1008B00010EB80054FEA810444EA907444EB010494
:1008C0006D1944EB0404521BA3414FF0000348BFD1
:1008D0000A3200D530BD401C41F1000130BD2DE988
:1008E000F0470D4699469246044600F124080168F7
:1008F000880604D5E06921F01001216000E00120A4
:10090000A84201DD471B00E00027A1697A1902EB2C
:100910000900081AA0612078C00602D42046FFF71B
:10092000E6FC002608E0D4E901211AF80600904709
:10093000206A401C761C20624E45F4DB2078C006FD
:100940000AD52046FFF7D3FC06E0D4E90121302088
:100950009047206A401C2062381EA7F10107F4DC92
:1009600007E0D4E9012118F805009047206A401CEF
:100970002062281EA5F10105F3DC2046FFF7CDFC1F
:100980002078000602D50220BDE8F0870120FBE7B1
:1009900070472DE9FF4F0C461E464FF0FF378BB0D6
:1009A000D2E90001DDF860800A908A46C1F30A5559
:1009B00005B93D46002108464FF00000BAF1000F8E
:1009C00000F4400005DA00EB80004FF4400101EA3A
:1009D00050004FEA9059B9F1010F00DDB9460A986D
:1009E00050EA4A000ED044F61050A5F2FF354543B8
:1009F0002F14B8F1000F1ED07542291E1EDDC9F15B
:100A000000021CE0B8F1010F4FF0000001D03021CE
:100A100003E0F24305E02154401CB042FBDB3046CA
:100A20000022002121540B99C1F80880C1E900205F
:100A30000FB0BDE8F08FBD1B6D1CDEE74A4600DA43
:100A4000694206A800F0EEFB06AB93E8070003AB93
:100A500083E8070050460A9900F0A7FC8DE80700DC
:100A6000A0F500501F3800900398002D09DD42F2D8
:100A70001F014A46084403A90390684600F006FF98
:100A800008E0A0F500504A461F3803A903906846C5
:100A900000F010FF8DE807000004000C03D04FF0B9
:100AA000FF30410800E01046B8F1000F03D00022EB
:100AB000009215461EE0751E05D4FFF7CBFE3032BE
:100AC00062556D1EF9D5B3460122084302D00022BB
:100AD0007F1C04E02078302801D100227F1E002AEC
:100AE000099786D01DE0112D07DAFFF7B3FE3032EB
:100AF00062556D1C50EA0102F5D1084302D00098FE
:100B0000C8B10EE00021681E05E0235C625C6354FE
:100B10002254401E491C8142F7DBAB46A81B401EF5
:100B20000990002004F80B000B98099AC0F808807F
:100B3000C0E9002B7CE711264FF0000859E72DE9AA
:100B4000F04F88460446D21D22F0070191B0D1E94A
:100B50000001CDE90A0102F052F802460B98C00FDD
:100B600001D02D2007E02068810701D52B2002E06D
:100B7000202101EAC000032A099001D0072A05DBE1
:100B800003464146204600F00DFB0BE1207880062D
:100B900001D5E06900E00620B8F1650F814606D076
:100BA000B8F1660F18D0B8F1670F70D131E00020AE
:100BB000B9F1110F009001DB112301E009F10103EC
:100BC0000AAA01A90CA8FFF7E4FEDDE90C700026D3
:100BD00009F10105834647E001204B4600904FF0A4
:100BE00000470AAA01A90CA8FFF7D3FEDDE90DB062
:100BF0000C995D46002610B909F101000D18B9EBFA
:100C0000050003D4C0F1FF3609F10105A5EB090089
:100C10002BE0B9F1010F01DA4FF001090020B9F121
:100C2000110F0090484601DD112300E003460AAA97
:100C300001A90CA8FFF7ADFEDDE90C704D460026BA
:100C40008346207800070AD4AB4500DA5D4601A848
:100C5000012D04DD411911F8011C302907D04F4541
:100C600002DA17F1040F04DA012082460FE06D1E4C
:100C7000EEE7002F02DCED1B3E4403E0781CA842A7
:100C800000DD7D1CB81B00F1010A4FF00047207801
:100C9000000703D4AA4501DB4FF0FF3A0021B7F16A
:100CA000004F0DF143088DF8431024D002202B2370
:100CB000002F01DA7F422D230A21021EA0F101003C
:100CC00000DC5FB197FBF1FC97FBF1F201FB1C7CB0
:100CD00017460CF1300C08F801CDEEE7A8F1010041
:100CE00003702188090501D5452100E06521A0F1A7
:100CF000010800F8011C09980FA9A1EB0807FF1DC6
:100D000000B10120411901EBEA70A1693844081AC9
:100D1000401EA0612078C00602D42046FFF7E7FA03
:100D2000099828B1D4E901219047206A401C20622B
:100D30002078C00622D52046FFF7D9FA1EE0002E03
:100D400004DBB34502DD01A8805D00E03020D4E97A
:100D500001219047206A401C2062761CAAF1010004
:100D60005FEA000A0AD100F019FAC0680168405C25
:100D7000D4E901219047206A401C2062281EA5F179
:100D80000105DCDC07E0D4E9012118F8010B9047EC
:100D9000206A401C2062381EA7F10107F3DC2046C0
:100DA000FFF7BBFA032011B043E600002DE9F04F36
:100DB00004460D46D21D22F0070089B0D0E9009705
:100DC0004846394601F01BFF0246F80F01D02D239B
:100DD00007E02068810701D52B2302E0202101EAEA
:100DE000C0038DF820300BB1012000E00020032A61
:100DF000824601D0072A04DB2946204600F0D2F9BA
:100E00003FE12078800601D40D2500E0E569C7F3B5
:100E10000A560D2D49DA00214FEA175B08464FF0BC
:100E20000000002F00F4400007DA00EB80004FF4D0
:100E3000400100EBD07001EA60008115012901DD5D
:100E40004FF0FF3100224FEA850CBCF1180F06D39A
:100E50001346ACF118004FF08052C24003E04FF44B
:100E6000801323FA0CF30CF10C0CBCF1200F04D30B
:100E7000ACF1200C09FA0CF001E007FA0CF00029A3
:100E80004FF0004801DD18B90FE00ED140450CD3FA
:100E900019EB02095F4121B9404502D19F4329EA7C
:100EA0000209BBEB175F00D0761C2088000502D535
:100EB0007B48784402E07A487844193808AA3023FD
:100EC00002F80A30037C0AF10101002E0AF1020A3D
:100ED00053546A4602DC4FF0300101E04FF031011B
:100EE0004FF001088DF8001002D0A6F2FF3603E0A3
:100EF00059EA470100D06B4E002D02DC217809072A
:100F000004D54FF002082E218DF80110C4460021AF
:100F10000BE0C7F303433F01C35C491C6D1E02F89D
:100F20000830052908F1010801DA002DF1DC002163
:100F30000CE000EB1973491C1B786D1E082902F8A0
:100F400008304FEA091908F1010801DA002DF0DC38
:100F500021688B0602D516E0A8F10108E04505DD01
:100F600002EB080313F8013C302BF5D0B8F1000F69
:100F700009DD02EB080313F8013C2E2B03D109070E
:100F800001D4A8F10108002D05DD3E2102F808106A
:100F90006D1E08F10108407C002E02F8080008F1DF
:100FA000010804DA2D20764202F8080002E02B2026
:100FB00002F808000A214FF47A70864208F101080D
:100FC0000BDB96FBF0F3303302F8083096FBF0F3BE
:100FD00008F1010800FB136601E0642E0CDB6420BD
:100FE00096FBF0F3303302F8083096FBF0F308F18B
:100FF000010800FB136601E00A2E06DB96FBF1F008
:10100000303002F8080008F1010896FBF1F001FB0E
:101010001060303002F80800A16908F1010808EBFF
:10102000050202EB0A00081AA0612078C00602D46B
:101030002046FFF75CF9216A08AE01EB0A00206246
:1010400004E0D4E9012116F8010B9047BAF1010A36
:10105000F7D22078C00602D52046FFF748F96E4641
:1010600009E016F8010B3E280FD0D4E90121904782
:10107000206A401C2062B8F10108F2D22046FFF736
:101080004CF909B00320BDE8F08F206A28442062A3
:1010900003E0D4E90121302090476D1EEBD3F8E73F
:1010A000BE69000002FCFFFF10B5436913B1AFF346
:1010B000008001E0FFF754F9012010BD127800F123
:1010C00024010A7000224A700122EDE711684FF0F6
:1010D000FF32E9E710B5436913B1AFF3008001E0D7
:1010E000FFF7D6F9012010BD128800F12401828497
:1010F0000022C2840122EDE711684FF0FF32E9E7D8
:1011000070B516460C46054600F040F8036893F8A3
:101110000101012806D0FF2C0FD8185D68B101200D
:101120002C7070BDD3F807013246214603F2071335
:1011300003442846BDE8704018474FF0FF3070BDAB
:10114000754600F0E7F8AE4605006946534620F0C4
:101150000700854618B020B5FFF7A2F8BDE820408B
:101160004FF000064FF000074FF000084FF0000B63
:1011700021F00701AC46ACE8C009ACE8C009ACE816
:10118000C009ACE8C0098D467047000010B500F0FA
:1011900005F8001D10BD00BF192E00000048704763
:1011A000F00300202DE9F0411F46044603260168A4
:1011B000072A01F4006004DB08B116A505E016A5B6
:1011C00003E008B115A500E015A521F0100020608E
:1011D000A069C01EA0610FB1401EA0612046FFF7AC
:1011E00086F84FB1D4E9012138469047206A401C67
:1011F0002062C01C206206E0206AFAE7D4E90121DF
:1012000015F8010B9047761EF8D22046FFF785F8B7
:10121000BDE8F0814E414E006E616E00494E4600C1
:10122000696E66002DE9F047814616468AB033485C
:1012300078440DC88DE80D0030487844801C03AC1C
:101240000DC884E80D0041F69B300844372190FB1F
:10125000F1F290FBF1F5A5F1800501FB12041B3CB6
:1012600002D56442012000E00020DFF890A0804613
:101270000027FA44AAF1BE0A0DE0E00709D0324681
:10128000684607EB47010AEB810100F013FB8DE88C
:10129000070064107F1C002CEFD1184F7F44AC3F37
:1012A00018E0E80714D007EB04100DF1180A90E8D5
:1012B0000E008AE80E00C068F04201D1981908902B
:1012C000324606A903A800F0F5FA03AB83E807004D
:1012D0006D10641C002DE4D132466946B8F1000F50
:1012E00003A802D000F0D2FA01E000F0E3FAC9E965
:1012F0000001C9F808200AB0BDE8F087D0660000F8
:1013000010B50446AFF300802046BDE81040FEF75C
:10131000AABF000000487047D00300204FF0013CF6
:1013200050F8042B51F8043B9A4221D1A2EB0C0354
:10133000934313EACC1317D150F8042B51F8043B14
:101340009A4215D1A2EB0C03934313EACC130BD1B1
:1013500050F8042B51F8043B9A4209D1A2EB0C033C
:10136000934313EACC13DBD04FF00000704700BF6B
:10137000D01A01BAB1FA81F101F0180122FA01F094
:10138000CB40C1F12001DBB2C0B2C01A2CFA01F38C
:10139000D11A914311EAC311E6D1704701491820CF
:1013A000ABBEFEE72600020070475FEA400C08BFB4
:1013B00091F0000F4FEA8C234FEAC12243EA5151CA
:1013C0004FEA1C5018BF00F5F0404FEA300018BF3C
:1013D00041F000415FEA6C5C00F02980BCF1FF3F06
:1013E00008BF40F080407047130C06BF12044FF056
:1013F000100C4FF0000C130E04BF12020CF1080C7D
:10140000130F04BF12010CF1040C930F04BF9200E0
:101410000CF1020CD30F04BF52000CF1010C114669
:101420004FF00002A0F11F00A0EB0C00704711F07C
:10143000004F08BF704731F000413FF4D5AF0B0CAF
:1014400006BF09044FF0100C4FF0000C0B0E04BF48
:1014500009020CF1080C0B0F04BF09010CF1040C7C
:101460008B0F04BF89000CF1020CCB0F04BF4900A5
:101470000CF1010CCCF12003A0EB0C0022FA03F3D9
:1014800002FA0CF241EA030100F10100704720F07A
:101490007F4C80EA030023F07F47ACEB070303F5A2
:1014A0007C5300F0004003F1FF032DE980494FEA2F
:1014B000154B09B44FEA144325EA0B4E24EA0348BE
:1014C0000FF2042606EB132749083E785FEA320242
:1014D00003FB0667C7F5000707FB06F64FEA54371C
:1014E0004FEAD64606F1020607FB066CCCF1005C1B
:1014F0004FEA1C472CEA074C07FB06F40CFB06F5E9
:1015000004EB15464FEA961634BF00204FF000401A
:101510004FEAD13706FB07FC4FEA1C4C0CFB0BF7DC
:10152000D21B03FB0CF761EB07010CFB0EF7B0EBD2
:10153000074072EB17420CFB08F734BFA2EB0742DF
:10154000B2EB074261EB17414FEA0C444FEA9107B7
:1015500006FB07FC4FEA1C4C0CFB0BF7B0EBC7403B
:1015600072EB573203FB0CF734BFA2EBC742B2EB6E
:10157000C74261EB57310CFB0EF7B0EBC70072EBC3
:1015800057720CFB08F734BFA2EBC702B2EBC702DD
:1015900061EB5771039F4FEA816141EA921104EBBD
:1015A000CC044FEAD1374FEA826206FB07FC42EADD
:1015B00090124FEA80604FEA1C4C0CFB0BF7D21BD9
:1015C00003FB0CF761EB07010CFB0EF7B0EB0740D8
:1015D00072EB17420CFB08F734BFA2EB0742B2EBE9
:1015E000074261EB17414FEA8C554FEA910704EB34
:1015F0009C2406FB07FC4FEA1C4C0CFB0BF7B0EBE2
:10160000C74072EB573203FB0CF734BFA2EBC74263
:10161000B2EBC74261EB57310CFB0EF7B0EBC700E2
:1016200072EB57720CFB08F734BFA2EBC702B2EBA8
:10163000C70261EB577115EB4C254FEA816141EA16
:1016400092114FEA82624FEAD13742EA901206FBCA
:1016500007FC44F100044FEA80604FEA1C4C0CFB8D
:101660000BF7D21B03FB0CF761EB07010CFB0EF72A
:10167000B0EB074072EB17420CFB08F734BFA2EB4C
:101680000742B2EB074261EB174115EB1C154FEA1D
:10169000813141EA92414FEA823242EA90424FEA76
:1016A00080304FEA0C7644F1000448EA03434EEAE6
:1016B0000B484FF0000EB2EB080C71EB030724BF90
:1016C000624639464EEB0E0E4FF0000B00185241A9
:1016D00049414BEB0B0BB2EB080C71EB03077BF1B1
:1016E000000B24BF624639464EEB0E0E4FF0000B46
:1016F0000018524149414BEB0B0BB2EB080C71EB5C
:1017000003077BF1000B24BF624639464EEB0E0EF9
:1017100051EA020718BF46F0010616EB0E7655F1A6
:10172000000254F1000103D5BDE88901BDE800883D
:10173000BDE88901BDE80048B619524141EB0101FD
:10174000A3F10103704780807F7E7D7C7B7A79786E
:10175000777676757473727171706F6E6E6D6C6C76
:101760006B6A6A6968686766666564646363626118
:101770006160605F5F5E5E5D5D5C5C5B5B5A5A5999
:101780005958585757565655555554545353525205
:101790005251515050504F4F4F4E4E4D4D4D4C4C5D
:1017A0004C4B4B4B4A4A4A494949484848474747A6
:1017B00047464646454545444444444343434342E3
:1017C000424242414141002B26D4770021D01CB532
:1017D0004FEA370703B44FF010004FF010014FF0FD
:1017E00000000FBCBDE810400BF1010BBBF1010F75
:1017F00008BF5FEA170722BF12F1010211F10101D0
:101800004FF0004143F1000300F0004043EA0000C4
:101810007047F9D35708DAE746EA064613F1400F56
:101820004FEA16461FDD13F1200FDFBF16430A46AD
:10183000002120335B42C8D0C3F1200746EA0646A8
:1018400002FA07F74FEA164646EA0706C3F12007F1
:1018500022FA03F201FA07F721FA03F14FF000032D
:1018600042EA0702B1E746EA020646EA06464FEABE
:10187000164646EA0106BCBF46EA0646360C4FF05D
:1018800000034FF000024FF000019EE72DE9C04831
:10189000934630B491E8380007C831EA400C48BF9D
:1018A00034EA430C03D5FFF7F2FDFFF78CFFF0BCE1
:1018B000BDE800882DE9C048934630B491E838006F
:1018C00007C810F0804F08BF13F0804F03D100F01D
:1018D00005F8FFF778FFF0BCBDE8008820F07F47EF
:1018E00080EA030023F07F4C07EB0C03A3F57C5345
:1018F00000F00040A3F1FE0392F0000F00F0B3806F
:1019000095F0000F00F077802DE901494FEA114072
:101910004FEA144621EA004800FB06FC24EA064789
:1019200008FB06F607FB08F800FB07F718EB06486C
:101930004CEB164C4FEA124B18EB07484FEA154692
:101940004CEB174022EA0B4E0BFB06FC25EA064740
:101950000EFB06F607FB0EFE0BFB07F71EEB064E13
:101960004CEB164C4FF000061EEB074E4CEB174BA2
:1019700018EB0B0840F1000018EB0E0B58EB0008B9
:1019800040F100008F1A4FF000013CBFC943661BB5
:1019900014BFB5EB040C00213CBFC943F61B4FEA52
:1019A00017444EEA8E0E27EA04454FEA1C4704FB13
:1019B00007622CEA074C05FB07F70CFB05F604FB56
:1019C0000CFC16EB074642EB174216EB0C4642EBBB
:1019D0001C421BEB060658EB0202414146EA9E06FA
:1019E00001D5BDE80189B619524141EB0101A3F1CE
:1019F0000103BDE801894FEA14454FEA114724EA83
:101A0000054621EA074C05FB07F406FB07F70CFB2C
:101A100006F105FB0CFC11EB074144EB17444FEAC0
:101A2000124711EB0C4144EB1C4422EA074C05FB26
:101A300007F206FB07F70CFB06F605FB0CFC16EBA2
:101A4000074642EB174216EB0C4642EB1C456A1860
:101A500054F1000148BF7047B619524141EB0101F2
:101A6000A3F10103704795F0000F37D04FEA114200
:101A70004FEA144721EA024624EA074C02FB07F129
:101A800006FB07F70CFB06F402FB0CFC14EB074407
:101A900041EB17414FEA154714EB0C4441EB1C4155
:101AA00025EA074C02FB07F506FB07F70CFB06F6D9
:101AB00002FB0CFC16EB074645EB174516EB0C46F4
:101AC00045EB1C42121951F1000148BF7047B6198D
:101AD000524141EB0101A3F1010370474FEA144564
:101AE0004FEA114724EA054621EA074C05FB07F1B6
:101AF00006FB07F70CFB06F24FF0000605FB0CFC9B
:101B000012EB074241EB174112EB0C4251EB1C4127
:101B100048BF7047921841EB0101A3F101037047E0
:101B200021B1826842F00102826003E0826822F003
:101B300001028260704721B1826842F48072826043
:101B400003E0826822F480728260704701460020C0
:101B50008A6802F004020AB1012000E00020704708
:101B6000014600208A6802F008020AB1012000E064
:101B70000020704730B502460020002350680F4C0B
:101B800020400D790C6844EA052420435060906899
:101B90000B4C2040D1E902542C434D7944EA4504D2
:101BA00020439060D06A20F470000C7C641EE4B284
:101BB000234340EA0350D06230BD0000FFFEF0FF37
:101BC000FDF7F1FFF0B504460D4600200021092D78
:101BD00011DDE068A5F10A0606EB4607072606FABE
:101BE00007F18843A5F10A0606EB460603FA06F15B
:101BF0000843E0600CE0206905EB4507072606FA7C
:101C000007F1884305EB450603FA06F10843206116
:101C1000072A0FDA606B561E06EB86071F2606FAA8
:101C200007F18843561E06EB860605FA06F10843BF
:101C3000606322E00D2A0FDA206BD61F06EB8607C1
:101C40001F2606FA07F18843D61F06EB860605FA1B
:101C500006F10843206310E0E06AA2F10D0606EBEE
:101C600086071F2606FA07F18843A2F10D0606EB48
:101C7000860605FA06F10843E062F0BD816841F08E
:101C800008018160704721B1826842F4A00282603D
:101C900003E0826822F4A00282607047816841F00C
:101CA00004018160704721B1026842F001020260C4
:101CB00004E002684FF6FE731A40026070470000AD
:101CC00001684FF6FE721140016000210160416021
:101CD0008160C1604B49884208D14A490839496846
:101CE00041F00F01474A083A51608AE045491431F2
:101CF000884208D143490839496841F0F001414A16
:101D0000083A51607DE03F492831884208D13D4979
:101D10000839496841F470613A4A083A516070E004
:101D200038493C31884208D136490839496841F47C
:101D30007041344A083A516063E032495031884278
:101D400008D130490839496841F470212D4A083AD0
:101D5000516056E02B496431884208D1294908393D
:101D6000496841F47001274A083A516049E0254921
:101D70007831884208D123490839496841F07061B7
:101D8000204A083A51603CE01F49884206D1011FB1
:101D9000096841F00F01021F116032E01A49143145
:101DA000884208D11849091F096841F0F001164A14
:101DB000121F116025E014492831884208D11249C8
:101DC000091F096841F470610F4A121F116018E081
:101DD0000D493C31884208D10B49091F096841F47B
:101DE0007041094A121F11600BE0074950318842C7
:101DF00007D10549091F096841F47021024A121FE1
:101E000011607047080002400804024010B500222B
:101E1000026847F6F0739A430C6A8B6823430C6997
:101E200023434C6923438C692343CC6923434C6A85
:101E300023438C6A23431A430260CB6843600B68D8
:101E400083604B68C36010BD2DE9F0410246002558
:101E50000026002000230024002791F803C00CF086
:101E60000F0591F803C00CF0100CBCF1000F03D06B
:101E700091F802C04CEA050591F800C0BCF1000FD2
:101E800031D0146800202BE04FF0010C0CFA00F365
:101E9000B1F800C00CEA03069E4220D183004FF047
:101EA0000F0C0CFA03F7BC4305FA03FC4CEA0404DC
:101EB00091F803C0BCF1280F06D14FF0010C0CFAC9
:101EC00000FCC2F814C00AE091F803C0BCF1480F4E
:101ED00005D14FF0010C0CFA00FCC2F810C0401CF8
:101EE0000828D1D31460B1F800C0BCF1FF0F34DD75
:101EF000546800202EE000F1080C4FF0010808FAA9
:101F00000CF3B1F800C00CEA03069E4221D1830015
:101F10004FF00F0C0CFA03F7BC4305FA03FC4CEA34
:101F2000040491F803C0BCF1280F05D100F1080C9E
:101F300008FA0CF8C2F8148091F803C0BCF1480FFD
:101F400007D100F1080C4FF0010808FA0CF8C2F8AC
:101F50001080401C0828CED35460BDE8F0810000FA
:101F6000F0B50A46002300240021002500F00046B9
:101F7000B6F1004F02D11D4EF16901E01B4E7168B0
:101F8000C0F3034583B200F44016B6F5401F08D1F4
:101F900021F07061154E766826F07066134F7E60F2
:101FA00012E000F48016B6F5801F06D1032606FA6B
:101FB00005F4A14341F0706106E0460D360103FAD5
:101FC00006F6B14341F0706122B1460D360103FAC5
:101FD00006F6314300F00046B6F1004F02D1034E41
:101FE000F16101E0014E7160F0BD000000000140B0
:101FF0000246002093680B400BB1012000E0002056
:1020000070474161704701617047000070B5002161
:1020100000230F22C47804B3154C246804F4E06450
:10202000C4F5E064210AC1F10403CA40447804FA0B
:1020300003F184781440214309010E4C0678A15520
:10204000047804F01F050124AC4005786D11AD0043
:1020500005F1E025C5F8004109E0047804F01F050A
:102060000124AC40044D0678761145F8264070BD39
:102070000CED00E000E400E080E100E0024A0A40EC
:102080000243024B1A60704780FFFF1F08ED00E01B
:1020900001460020034A506820F440400843506045
:1020A000704700000010024029B1064A52690243FD
:1020B000044B5A6104E0034A52698243014B5A615E
:1020C000704700000010024029B1064AD26902435D
:1020D000044BDA6104E0034AD2698243014BDA61BE
:1020E000704700000010024029B1064A926902437D
:1020F000044B9A6104E0034A92698243014B9A615E
:10210000704700000010024030B50021002200247A
:1021100000232D4D6D6805F00C0121B1042905D077
:10212000082923D105E0294D056022E0274D0560EF
:102130001FE0254D6D6805F47012234D6D6805F4A0
:102140008034022505EB92421CB9214D55430560B0
:102150000BE01D4D6D6805F400351DB11C4D554358
:10216000056002E0194D5543056002E0174D05601A
:1021700000BF00BF144D6D6805F0F0010909154D51
:102180006B5C0568DD4045600F4D6D6805F4E061EE
:10219000090A104D6B5C4568DD4085600A4D6D682D
:1021A00005F46051C90A0B4D6B5C4568DD40C560A4
:1021B000054D6D6805F44041890B074D6B5CC568A2
:1021C000B5FBF3F5056130BD0010024000127A0046
:1021D00000093D00000000201000002021B102880D
:1021E00042F40052028004E002884DF6FF731A4068
:1021F0000280704721B1028842F04002028004E070
:1022000002884FF6BF731A400280704702460020D2
:1022100013890B400BB1012000E0002070470146FC
:10222000888970478181704710B50022028802F4C6
:1022300041520B884C8823438C882343CC8823430A
:102240000C8923434C8923438C892343CC89234322
:102250001A430280838B4FF2FF74234083830B8ADF
:10226000038210BD21B1828842F00402828004E022
:1022700082884FF6FB731A408280704710B500F0D9
:1022800001F810BD0CB500200190009033480068A3
:1022900040F480303149086000BF3048006800F4E5
:1022A000003000900198401C0190009818B90198E6
:1022B000B0F5A06FF1D12948006800F4003010B1EA
:1022C0000120009001E0002000900098012843D1F7
:1022D0002348006840F01000214908600846006863
:1022E00020F0030008600846006840F00200086023
:1022F0001A484068194948600846406848600846DE
:10230000406840F4806048600846406820F47C10D3
:1023100048600846406840F4E81048600846006895
:1023200040F08070086000BF0C48006800F000704A
:102330000028F9D00948406820F0030007494860A8
:102340000846406840F00200486000BF034840680B
:1023500000F00C000828F9D10CBD0000001002406C
:102360000020024010B5022000F06AFE044621461B
:10237000274801F0CFF9012000F062FE0446214613
:10238000244801F0C7F924480168214801F05DF9AB
:1023900022490860204801681E4801F056F920498A
:1023A0000860204800681D49096808441D49086004
:1023B0001D4800681A49096808441B490860194803
:1023C000006842F21071884203DD08461549086032
:1023D00000E000BF1448006842F21071884203DD3B
:1023E00008461149086000E000BF0E480068002858
:1023F00003DA00200B49086000E000BF0A480068CB
:10240000002803DA00200849086000E000BF10BD82
:10241000F002002028030020780100207001002035
:1024200074010020B8000020BC00002010B502207C
:1024300000F006FE04462146274801F06BF9012012
:1024400000F0FEFD04462146244801F063F941F600
:102450005831234801F0F9F82249086041F6583113
:10246000214801F0F2F821490860214800681D491F
:10247000096808441E4908601E4800681B4909682D
:1024800008441C4908601A48006842F210718842EA
:1024900003DD08461649086000E000BF15480068E3
:1024A00042F21071884203DD08461249086000E0DC
:1024B00000BF0F480068002803DA00200C490860BC
:1024C00000E000BF0B480068002803DA002009493B
:1024D000086000E000BF10BD6003002098030020EA
:1024E0008002002070010020B8020020740100204A
:1024F000B0000020B400002010B5022000F0A0FDC4
:1025000004462146274801F005F9012000F098FD16
:1025100004462146244801F0FDF82448016821487A
:1025200001F093F822490860204801681E4801F034
:102530008CF8204908602048006820490968084450
:102540001D4908601E4800681E49096808441C4966
:1025500008601948006842F21071884203DD08469D
:102560001549086000E000BF1548006842F210718C
:10257000884203DD08461249086000E000BF0E48AB
:102580000068002803DA00200B49086000E000BF63
:102590000B480068002803DA00200949086000E0C1
:1025A00000BF10BD600300209803002078010020C8
:1025B0007001002074010020D0000020D80000200D
:1025C000D4000020DC00002010B51348006840F063
:1025D00001001149086008464068104908400E494A
:1025E0004860084600680E4908400B4908600846E4
:1025F000006820F4802008600846406820F4FE004F
:1026000048604FF41F008860FFF738FE4FF000600D
:102610000449086010BD0000001002400000FFF8EF
:10262000FFFFF6FE08ED00E010B50121880700F07D
:102630004AF800B910BD0121880700F023F80948C5
:102640000088401C80B207490880B0F57A7F06DB1D
:102650000020088004480088401C0349088000BF0F
:10266000E8E70000140000201600002021B10288D5
:1026700042F08002028004E002884FF67F731A4025
:1026800002807047CA4302827047CA430282704781
:1026900021B1028842F00102028004E002884FF674
:1026A000FE731A400280704731B1B0F8442042F402
:1026B0000042A0F8442005E0B0F84420C2F30E0226
:1026C000A0F84420704730B50246002000230024C3
:1026D000158A05EA0103958905EA010413B10CB1D5
:1026E000012000E0002030BD1AB183890B438381B3
:1026F00002E083898B4383817047000070B500241A
:1027000000220023058C4FF6FE7635400584028CAE
:102710008388048B4FF68F752C40B51E2C400D8896
:102720002C43751E2A400D892A434D882A43144D97
:10273000A8420BD0134DA84208D0134DA84205D093
:10274000124DA84202D0124DA84213D14FF6F77590
:102750002A404D892A434FF6FB752A408D882A432B
:102760004FF6FF652B404FF6FF552B408D892B43CD
:10277000CD892B4383800483CD888586028470BDF8
:10278000002C014000340140004001400044014061
:10279000004801400A460021018B4FF6F7731940AB
:1027A000114301837047000070B50024002200230C
:1027B000058C4FF6EF7635400584028C8388048BB8
:1027C00048F6FF752C404FF6FF452C400D884FF61C
:1027D000FF7606EA05252C434FF6DF752A400D8962
:1027E00006EA05152A434D8806EA05152A43154DC4
:1027F000A84202D0144DA8421DD14FF67F752A4041
:102800004D894FF6FF7606EA05152A434FF6BF7548
:102810002A408D8806EA05152A434FF6FF352B40DE
:102820004FF2FF752B408D8906EA85052B43CD8934
:1028300006EA85052B4383800483CD8805870284BF
:1028400070BD0000002C0140003401400A46002108
:10285000018B4FF2FF7319404FF6FF7303EA022317
:10286000194301837047000070B500240022002343
:10287000058C4FF6FF6635400584028C8388848B77
:102880004FF68F752C404FF6FC752C400D882C436D
:102890004FF6FF552A400D894FF6FF7606EA0525CB
:1028A0002A434D8806EA05252A43154DA84202D041
:1028B000144DA8421DD14FF2FF752A404D894FF6A5
:1028C000FF7606EA05252A434FF6FF352A408D8814
:1028D00006EA05252A434EF6FF752B404DF6FF7597
:1028E0002B408D8906EA05152B43CD8906EA05158F
:1028F0002B4383808483CD888587028470BD00004C
:10290000002C0140003401400A460021818B4FF623
:10291000F77319401143818370478186704701879F
:1029200070478187704781847047000000220288C9
:102930001D4B98420ED01D4B98420BD0B0F1804FEA
:1029400008D01B4B984205D01A4B984202D01A4B24
:10295000984204D14FF68F731A404B881A43174B95
:10296000984207D0164B984204D04FF6FF431A40C6
:10297000CB881A4302808B8883850B8803850A4B9A
:1029800098420BD0094B984208D00E4B984205D084
:102990000D4B984202D00D4B984201D10B7A038621
:1029A0000123838270470000002C01400034014065
:1029B0000004004000080040000C004000100040EF
:1029C0000014004000400140004401400048014024
:1029D00010B540F225510A4800F051F878B1094885
:1029E000007838B1064800F005F9C4B2064801681D
:1029F0002046884740F22551014800F025F810BDD7
:102A000000380140440000203C00002010B540F296
:102A100025510A4800F033F878B10948407838B1B8
:102A2000064800F0E7F8C4B20648416820468847E7
:102A300040F22551014800F007F810BD0048004061
:102A4000440000203C00002010B50022002340F686
:102A50006A14A14200D100BF0A1201249440A3B21B
:102A6000DC43048010BD21B1828942F4005282818E
:102A700004E082894DF6FF731A408281704770B579
:102A80000246002400230025002040F66A16B142C9
:102A900000D100BFC1F3421501F01F03012606FA61
:102AA00003F3012D02D19689334006E0022D02D1B5
:102AB000168A334001E0968A33400C12012606FA4A
:102AC00004F41688344013B10CB1012000E000205A
:102AD00070BDF0B50346002400260025002040F616
:102AE0006A17B94200D100BF1846C1F3421401F081
:102AF0001F06012707FA06F5012C01D10C3004E06E
:102B0000022C01D1103000E014301AB107682F43B5
:102B1000076002E00768AF430760F0BD2DE9F047AA
:102B200086B005460E460024A24600BFA1460027F7
:102B3000B08900B100BF2F462C8A4CF6FF700440CC
:102B4000F08804432C82AC894EF6F3100440B08820
:102B500031890843718908430443AC81AC8A4FF63C
:102B6000FF400440B0890443AC8201A8FFF7CCFACF
:102B70001F48874202D1DDF810A001E0DDF80CA06B
:102B8000A88900F4004040B10AEBCA0000EB0A102B
:102B900031684900B0FBF1F807E00AEBCA0000EB2E
:102BA0000A1031688900B0FBF1F86420B8FBF0F03E
:102BB00004012009642101FB1089A88900F4004068
:102BC00040B1322000EBC900B0FBF1F000F007008B
:102BD000044308E0322000EB09106421B0FBF1F05F
:102BE00000F00F0004432C8106B0BDE8F087000020
:102BF0000038014001468888C0F30800704749004A
:102C000050EAC12018BF04204A0D18BF40F001004F
:102C100040F2FF72B2EB515F08BF40F002000128A2
:102C200008BF05207047000070B504461C480078B6
:102C300068BB01201A49087023E0B4F57A7F02DDF1
:102C40004FF47A7000E02046064642F22830704386
:102C50004FF0E0214861002088610120086100BF39
:102C60004FF0E020056905F0010018B105F480304F
:102C70000028F5D000204FF0E02108618861A01BFA
:102C800084B2002CD9D100200549087007E001E08A
:102C900000F090FD201EA4F101018CB2F8D170BDAE
:102CA0005800002030380A2801D201207047002047
:102CB0007047000000B591B001210846FFF7F4F914
:102CC0004648FEF7FDFF464806904648079000201C
:102CD00008901020099000200A9080200B9080001E
:102CE0000C9080000D9020200E9000020F9000208C
:102CF000109006A93948FFF789F801213748FEF7F7
:102D0000D2FF01210420FFF7EFF90220ADF81400F3
:102D100000208DF8170005A93348FFF795F8012129
:102D20000820FFF7E1F90220ADF8140000208DF82B
:102D3000170005A92D48FFF787F801214802FFF782
:102D4000D3F90020009001208DF804008DF80500D3
:102D50004FF4602002900020039002208DF81000B4
:102D600069461F484C38FEF705FF4FF44040FFF717
:102D70008FF907230122114619484C38FEF722FF2C
:102D800007230222092116484C38FEF71BFF0121B8
:102D900013484C38FEF7CFFE012111484C38FEF79E
:102DA000BFFE0F484C38FEF769FF00BF0C484C3897
:102DB000FEF7D6FE0028F9D109484C38FEF76EFF21
:102DC00000BF07484C38FEF7C1FE0028F9D10121A9
:102DD00003484C38FEF757FF11B000BD0800024011
:102DE0004C240140BC01002000080140000C0140BF
:102DF00010B54FF4E131012001F022F80249012021
:102E000001F0AEF810BD00000D2E000810B504460C
:102E100045480068802802D10020434908604248A4
:102E200001680068401C404A10604048445400203B
:102E30003E49126888546D2C02D102203C4908603A
:102E4000772C0FD1FFF78EFA3A48008882B2012121
:102E5000002000F037FB3848008882B20121084684
:102E600000F030FB732C0DD1FFF746FB41F28832A6
:102E70000021084600F026FB41F2883200210120A3
:102E800000F020FB612C0DD12A48008882B200217D
:102E9000084600F017FB2848008882B20121084646
:102EA00000F010FB642C0DD12248008882B2012171
:102EB000002000F007FB2048008882B2002101209A
:102EC00000F000FB6B2C09D100221146104600F0E7
:102ED000F9FA00221146012000F0F4FA6C2C03D11B
:102EE0000121084600F022FC6F2C03D100210120B3
:102EF00000F01CFC672C03D10121022000F016FC1D
:102F0000722C03D10021022000F010FC742C03D19C
:102F10000121032000F00AFC682C03D100210320CA
:102F200000F004FC10BD0000CC00002000020020D6
:102F3000C8000020B8000020BC00002008B5012116
:102F40001020FFF7D1F803208DF8020048208DF8FB
:102F500003004FF46040ADF8000069461548FEF7E5
:102F600073FF002022E0144951F8201000EB80028A
:102F7000124B43F82210124931F8101000EB800276
:102F800003EB82029180012100EB800203EB8202BD
:102F90009171002100EB800203EB8202D17100EB02
:102FA000800203EB82021172411CC8B20328DADBF3
:102FB00008BD000000100140180000207C01002026
:102FC0001C45000870B5002435E0204600F0E0FB09
:102FD00005469DB904EB8400184901EB8000807917
:102FE00060B104EB840001EB8000C07930B104EBE8
:102FF0008401124A02EB8101C86880479DB104EB4D
:1030000084000E4901EB8000807960B904EB8400F4
:1030100001EB8000007A30B104EB8401074A02EB37
:1030200081010869804704EB8400044901EB8000BA
:103030008571601CC4B2032CC7DB70BD7C0100200D
:1030400070B5054600F056F80446012D15D1184814
:10305000006818490968411A17480068201A401C7E
:10306000B1FBF0F01549086011480068114908608B
:10307000114804601148006870BD022D15D1104838
:10308000006810490968411A0F480068201A401C5E
:10309000B1FBF0F00D490860094800680949086073
:1030A0000948046009480068E6E70020E4E70000FA
:1030B00084000020940000209C0000208C00002050
:1030C0008800002098000020A00000209000002030
:1030D0000146012902D1054800687047022902D142
:1030E00003480068F9E74FF0FF30F6E7840000205E
:1030F000880000200548008800EB4001C1EBC010AB
:103100000349098801EBC000704700001600002049
:10311000140000201FB5002242F210718F2000F031
:10312000FFF900F01FFB00224FF6E071022000F0D3
:1031300093FB00F04FFEFFF7BDFDFFF7FFFEFFF72B
:10314000D9FF04460120FFF7C3FFBD4908600220F4
:10315000FFF7BEFFBB490860FFF74AFEBA4908788F
:10316000FFF754FEB94803C8CDE90201B84903C9C5
:10317000CDE90001B7480CC8B74800F053FAB7488A
:1031800003C8CDE90201B64903C9CDE90001B5483C
:103190000CC8B54800F046FAB44903C9CDE90201AC
:1031A000B34903C9CDE90001B2480CC8B24800F0E8
:1031B00039FAB24803C8CDE90201B14803C8CDE9E4
:1031C0000001B0480CC8B04800F02CFAAF4803C862
:1031D000CDE90201AE4803C8CDE90001AD480CC8F5
:1031E000AD4800F01FFAAD4903C9CDE90201AC4872
:1031F00003C8CDE90001AB480CC8AB4800F012FA97
:103200001CE1FFF7DFFE002000F0C2FA10B9012038
:10321000A6490860A5480068012802D00228EFD11D
:10322000FFE0A348006820BBFFF764FF001B1428E1
:1032300003D10121084600F079FAFFF7F7F89D481D
:10324000008882B20121084600F03CF99A480088C3
:1032500082B20121002000F035F9FFF74BFF001B7F
:10326000B0F57A7F05D9FFF745FF04460120904964
:1032700008608F48006801281BD10121022000F05E
:1032800055FAFFF7D3F800220121104600F01AF991
:1032900000220121084600F015F9FFF72BFF001B63
:1032A000B0F5AF7F05D9FFF725FF0446022080491E
:1032B00008607F480068022814D1FFF71BFF001B3D
:1032C000322803D10021012000F030FAFFF712FF6D
:1032D000001BB0F5437F05D9FFF70CFF0446032020
:1032E0007349086072480068032814D1FFF702FF91
:1032F000001B322803D10021022000F017FAFFF74B
:10330000F9FE001BB0F52F7F05D9FFF7F3FE044649
:1033100004206749086066480068042814D1FFF754
:10332000E9FE001B322803D10121084600F0FEF916
:10333000FFF7E0FE001BB0F52F7F05D9FFF7DAFE9F
:10334000044605205A4908605948006805281BD1E1
:10335000FFF76CF85848008882B20021084600F058
:10336000B1F85448008882B20121084600F0AAF85A
:10337000FFF7C0FE001BB0F5AF7F05D9FFF7BAFE1F
:10338000044606204A4908604948006806281BD1BF
:10339000FFF74CF84848008882B20121002000F075
:1033A00091F84448008882B20121084600F08AF86A
:1033B000FFF7A0FE001BB0F5487F05D9FFF79AFE86
:1033C000044607203A49086039480068072835D183
:1033D00000220121104600F075F800220121084664
:1033E00000F070F8FFF786FE001BB0F5967F05D958
:1033F000FFF780FE044608202D4908602C4800682D
:1034000008280DD10121022000F090F9FFF772FE8B
:10341000001B43F69821884202D9FFF76BFE044651
:1034200000BF07E000F0F6F9244B25A20A21084668
:1034300000F034FB1D4800680228F3D0E1E60000EC
:10344000AC000020A80000201C78000850010020DB
:103450004801002040010020800200206801002077
:103460006001002058010020B8020020F000002078
:10347000E8000020E0000020F00200200801002009
:1034800000010020F8000020280300202001002077
:1034900018010020100100206003002038010020E6
:1034A000300100202801002098030020C8000020DF
:1034B000C4000020B4000020B00000200002002062
:1034C0002573000070B504460D46164645B1114AF5
:1034D00032F81410104A52F82400FEF794FD07E069
:1034E0000C4A32F814100C4A52F82400FEF789FDF9
:1034F0001CB931460948FFF710FA012C03D13146B7
:103500000648FFF70CFA022C03D131460348FFF7B7
:1035100008FA70BD4845000848000020002C014012
:1035200070B588B006460C461546012140F61900D4
:10353000FEF7DAFD10208DF81F0003208DF81E0025
:103540004FF48050ADF81C0007A93348FEF77CFC0F
:103550004FF4C050ADF81C0007A93048FEF774FCCA
:1035600018208DF81F0003208DF81E004FF46040D6
:10357000ADF81C0007A92848FEF766FC0020ADF84E
:103580001200ADF816008DF81800ADF81060ADF817
:10359000144004A92248FFF7C9F90020ADF808003B
:1035A000ADF80A006020ADF800000020ADF80C0076
:1035B000ADF80E000120ADF802000420ADF80400C3
:1035C000ADF8065069461648FFF798F801211448EF
:1035D000FFF7E0F869461248FFF7E6F801211048C6
:1035E000FFF734F969460E48FFF73EF901210C4810
:1035F000FFF78AF901210A48FFF738F80121084846
:10360000FFF746F800210648FFF78DF9012104482D
:10361000FFF74AF808B070BD000C014000100140EF
:10362000002C0140F0B505ACF0CCC0E90023C0E9A6
:103630000245C0E9046700218161C1610162416204
:103640008162C16201634163F0BD2DE9FF5F824683
:103650008B46DAF81810ABEB010000F046FE04468A
:10366000DAE90063324600F057FE804600F00EFEB5
:10367000CAF82800DAF8180020B9DAF8280004B0EF
:10368000BDE8F09FFFF736FD401CDAF81C10401A29
:10369000DAF81820ABEB0202DAF8341002FB001063
:1036A000CAF83400DAF8340000F01FFE8046DAE988
:1036B0000243224600F030FE064600F0E7FDCAF85D
:1036C0002C00DAF82420DAF81C10881A00F00DFE1D
:1036D00080468946DAF82020DAF81810881A00F0B7
:1036E00004FE0646DAE90443224600F015FE42468F
:1036F0004B46CDE9000100F071FCCDE9020100F07C
:10370000C5FDCAF83000DAE90A010844DAF83010D9
:103710000844B4E770B504460D46A0692062E0692C
:103720006062A561FFF7E6FCE06170BD70B504461C
:103730000D46012D08D1094A32F81410084A52F8F2
:103740002400FEF760FC07E0044A32F81410044A33
:1037500052F82400FEF755FC70BD000010780008F8
:103760005C00002008B501211020FEF7BDFC0320FD
:103770008DF8020010208DF803003F20ADF8000006
:1037800069460248FEF760FB08BD000000100140DA
:1037900010B5044604EB8402054B03EB82029188CA
:1037A00004EB840253F82200FEF722FC10BD000057
:1037B0007C01002010B5002400BF03E0FCF75AFD97
:1037C000601CC4B2642CF9DB10BD10B5002332B10B
:1037D000012A05D0022A0AD0032A18D110E016E0E7
:1037E0000B7804780C70C3F17F0404700FE00C7840
:1037F000C4F19F040C700478C4F17F04047006E0E7
:103800000B780478C4F19F040C70037000BF00BFF4
:1038100010BD000070B59F237F220021084600F0F4
:10382000E5F92C2000F086FA002410E000250AE0DB
:1038300008490988081200F0A5FA0649087800F03E
:10384000A1FA681CC5B2A02DF2DB601CC4B2802CAA
:10385000ECDB70BD7600002070B506460C461546C0
:1038600000F0F2F900F0B0F9112000F063FA7820CE
:10387000FFF7DAF9B12000F05DFA012000F082FADA
:103880002C2000F07FFA2D2000F07CFAB22000F00E
:1038900051FA012000F076FA2C2000F073FA2D2066
:1038A00000F070FAB32000F045FA012000F06AFA47
:1038B0002C2000F067FA2D2000F064FA012000F0BF
:1038C00061FA2C2000F05EFA2D2000F05BFAB420A3
:1038D00000F030FA072000F055FAC02000F02AFA74
:1038E000A22000F04FFA022000F04CFA842000F0F1
:1038F00049FAC12000F01EFAC52000F043FAC220A8
:1039000000F018FA0A2000F03DFA002000F03AFA20
:10391000C32000F00FFA8A2000F034FA2A2000F0C9
:1039200031FAC42000F006FA8A2000F02BFAEE20CB
:1039300000F028FAC52000F0FDF90E2000F022FA70
:10394000362000F0F7F9C02000F01CFAE02000F06B
:10395000F1F90F2000F016FA1A2000F013FA0F20E8
:1039600000F010FA182000F00DFA2F2000F00AFAEB
:10397000282000F007FA202000F004FA222000F0AE
:1039800001FA1F2000F0FEF91B2000F0FBF92320B4
:1039900000F0F8F9372000F0F5F9002000F0F2F916
:1039A000072000F0EFF9022000F0ECF9102000F001
:1039B000E9F9E12000F0BEF90F2000F0E3F91B2047
:1039C00000F0E0F90F2000F0DDF9172000F0DAF93F
:1039D000332000F0D7F92C2000F0D4F9292000F092
:1039E000D1F92E2000F0CEF9302000F0CBF93020B4
:1039F00000F0C8F9392000F0C5F93F2000F0C2F905
:103A0000002000F0BFF9072000F0BCF9032000F00F
:103A1000B9F9102000F0B6F92A2000F08BF9002047
:103A200000F0B0F9002000F0ADF9002000F0AAF994
:103A30007F2000F0A7F92B2000F07CF9002000F097
:103A4000A1F9002000F09EF9002000F09BF99F20D2
:103A500000F098F9F02000F06DF9012000F092F9E3
:103A6000F62000F067F9002000F08CF93A2000F011
:103A700061F9052000F086F9292000F05BF904487F
:103A800006700448048004480580FFF7C3FE70BD3B
:103A90007400002076000020780000200FB42DE98B
:103AA000F04FC5B080468A464FF0000951A80490F7
:103AB00005A8049A5099FCF705FC002004900DF12C
:103AC000140955E02F480068407803902D4800689D
:103AD00099F8002041680398101A01EB80000068F3
:103AE0000290BDF80AB09DF808502648006800789A
:103AF0000190002632E000242CE0002724E0294633
:103B0000EA1705EB5272D210521C06FB02B2204695
:103B1000E31704EB537302EBE3021A4B1B689B6839
:103B20009A5C80233B411A400092009850B10AEB06
:103B30000602D1B208EB07022244D0B2124A128820
:103B400000F024F8781CC7B2281BB842D7DC04F177
:103B50000800C4B2AC42D0DB701CC6B201988642E9
:103B6000C9DB681C404400F0FF0809F1010900BFEF
:103B700099F800000028A5D145B0BDE8F00F5DF828
:103B800014FB00007C0000207800002037B51446AC
:103B90000C48027801A96846FFF717FE9DF804302B
:103BA0005B1C9DF80020521C9DF804109DF800003D
:103BB00000F01CF8201200F0E5F8E0B200F0E2F8A6
:103BC0003EBD00007400002010B504210648FEF739
:103BD00018FA6420FFF728F804210348FEF713FAC7
:103BE0003220FFF721F810BD000801402DE9F04117
:103BF00004460D4616461F462A2000F09BF800207A
:103C000000F0C0F8A11CC8B200F0BCF8002000F021
:103C1000B9F8B11CC8B200F0B5F82B2000F08AF852
:103C2000002000F0AFF8691CC8B200F0ABF800202B
:103C300000F0A8F8791CC8B200F0A4F82C2000F01D
:103C400079F8BDE8F081000000B587B001210420BB
:103C5000FEF74AFA01210846FEF746FA0121080359
:103C6000FEF742FA01213048FEF77AF90420ADF858
:103C7000180010208DF81B0001208DF81A0006A9ED
:103C80002A48FEF7E1F80820ADF8180010208DF85A
:103C90001B0001208DF81A0006A92448FEF7D4F86D
:103CA000E020ADF8180018208DF81B0003208DF8D7
:103CB0001A0006A91D48FEF7C7F81020ADF8180035
:103CC0008DF81B0003208DF81A0006A91748FEF78F
:103CD000BBF80020ADF804004FF48270ADF8060088
:103CE0000020ADF808000220ADF80A000120ADF870
:103CF0000C004002ADF80E000820ADF810000020C6
:103D0000ADF8120001A90A48FEF78EFA0121084811
:103D1000FEF770FA00210648FEF760FA0021044819
:103D2000FEF7A0FA07B000BD000230000008014015
:103D30000030014010B5044610211048FEF761F92B
:103D400008210E48FEF75DF900BF02210C48FEF77E
:103D50005DFA0028F9D021460948FEF763FA00BF52
:103D600001210748FEF752FA0028F9D00448FEF76F
:103D700056FA10210148FEF746F910BD000801402F
:103D80000030014010B5044610211048FEF739F903
:103D900008210E48FEF737F900BF02210C48FEF754
:103DA00035FA0028F9D021460948FEF73BFA00BF52
:103DB00001210748FEF72AFA0028F9D00448FEF747
:103DC0002EFA10210148FEF71EF910BD000801402F
:103DD000003001401FB501210846FEF775F94FF488
:103DE0007A70ADF808004720ADF8040001A94FF043
:103DF0008040FEF79BFD01218807FEF746FC01226B
:103E000011469007FEF770FC01218807FEF740FC81
:103E100000208DF801008DF8020001208DF80300CC
:103E20001C208DF800006846FEF7F0F800200249DB
:103E30000880024908801FBD1600002014000020E1
:103E400030B585B004460D462C4951F8241009437D
:103E500041F001000121FEF747F934B9284951F832
:103E600024000121FEF740F905E0254951F824001E
:103E70000121FEF729F918208DF81300214830F8A8
:103E80001400ADF8100003208DF812001E4951F8FF
:103E9000240004A9FDF7D8FF04208DF813001B4867
:103EA00030F81400ADF81000194951F8240004A9A5
:103EB000FDF7CAFF00950020ADF80400ADF806003C
:103EC000ADF80800ADF80C000C20ADF80A0011495F
:103ED00051F824006946FEF721FE0E4951F82400EE
:103EE000012240F22551FEF7F4FD0A4951F8240061
:103EF0000121FEF7B8FD05B030BD00002C450008DB
:103F0000344500083C4500082C00002040450008CE
:103F1000340000202400002038B5044600214FF072
:103F20000060FEF7ABF80C4810F814008DF80000A4
:103F300001208DF801008DF802008DF8030068461D
:103F4000FEF764F8054951F82400012240F225519A
:103F5000FEF7BFFD38BD00004445000824000020E6
:103F600070B504460D46054840F824500120044928
:103F700008552046FFF7D0FF70BD00003C00002030
:103F80004400002010B500290AD00878002807D086
:103F900005487844FDF7C2F9002801D0002010BD83
:103FA0000248784410BD0000AA390000A239000080
:103FB00010B500290AD00878002807D005487844B1
:103FC000FDF7ACF9002801D0002010BD024878446C
:103FD00010BD00009A390000923900002DE9C0415F
:103FE00030B4DFF8A0C23CEA111418BF3CEA131445
:103FF00000F0EC8081EA03051CEA111444EAD57450
:1040000018BF1CEA131500F0C780A4EB05044FF09D
:10401000004545EAC12145EAC32341EA505143EA3C
:10402000525304F17F74994204F500344FEAC020E2
:104030004FEAC22208BF904200F09C804FEA13650D
:104040000FF24016765D4FEA134506FB05F7C7F100
:10405000807706FB07F74FEAD737A7FB036876425E
:10406000C8F58038A7FB06CE38BFA8F1010807FBCA
:1040700008E64FF0000EA6FB028CE6FB03CEDCF157
:10408000000CCEF1004E38BFAEF1010EA6FB0C586D
:104090004FF000074FF00005E6FB0E87A1FB08C6B6
:1040A000A0FB07CE16EB0E0645F10005E1FB076508
:1040B00015F1E04E7EBFA4F580345FEA46066D41FF
:1040C00016F1800745F100054FEA17274FEA06660B
:1040D00047EA0567A6F1DE46B6F1805F4FEA15258F
:1040E0001FD9384624F0010C05EBC471BCF1FE6FFA
:1040F00001EB0C1102D8F0BCBDE8008124425CBF8A
:1041000001F5801E9EEAC47F02D4F0BCBDE80081A8
:10411000244238D4F0BCA1F1C041BDE8004100F018
:10412000F3B94FEAD22242EA43524FEAD323A7FB24
:1041300002864FEAD02040EA415007FB03661EEAA0
:104140000E0F4FEAD12105FB026658BFA6EB0056C1
:10415000B6EB00564FEA520E4EEAC37E18EB0E0E37
:1041600056EB530EBDD518EB02085E417F1C55F18E
:104170000005B6E74FF480154FF000074FF000063A
:104180004FF00008ADE7F0BC4FF0000001F1C04176
:1041900001F00041BDE8008111EA0C1F0CEA131583
:1041A00000D00CE013EA0C1F00F025804FF0000057
:1041B000F0BC81EA030101F00041BDE80081F0BCE0
:1041C000BDE8004181EA030100F09EB9F0BCBDE802
:1041D000004170B500F04AF9097EFC3E00F007B8D6
:1041E00081EA03014FF0000001F00041704781EACD
:1041F000030100F089B9F0BCBDE800414FF00000B8
:1042000021497047FFFDFBF9F7F5F4F2F0EEEDEB15
:10421000E9E8E6E4E3E1E0DEDDDBDAD8D7D5D4D3C4
:10422000D1D0CFCDCCCBCAC8C7C6C5C4C2C1C0BF10
:10423000BEBDBCBBBAB9B8B7B6B5B4B3B2B1B0AF16
:10424000AEADACABAAA9A8A8A7A6A5A4A3A3A2A1FA
:10425000A09F9F9E9D9C9C9B9A99999897979695B5
:1042600095949393929191908F8F8E8E8D8C8C8B51
:104270008B8A8989888887878685858484838382D9
:10428000828181800000FF070000F87F4FEA410330
:104290004FEA5353A3F58063D3F11E03C8BFD3F194
:1042A000210C0CDD4FF0004242EAC12242EA50529A
:1042B00032FA03FC8CEAE17CACEBE1707047102B26
:1042C000C4BF0020704703F5787CBCF1FF3F04D0E9
:1042D0006FF0004282EA2100704770B500F0C6F826
:1042E0004992248000207047F2E710F0004248BF56
:1042F0004042B0FA80F310FA03F10AD0C3F11D0373
:1043000003F580634FEA415002EB035202EBD121E7
:1043100070474FF000007047DFF848C170B51CEAE5
:10432000111E1EBF1CEA13159EEA0C0F95EA0C0F16
:1043300000F06F8081EA030423EA4C134EEAD47E36
:1043400021EA4C1141F4801143F48013AE44A1FBE7
:10435000024CA0FB0365AEF17F7E361955EB0C05D0
:10436000A1FB034C4CF10003A0FB021C16EB0C0656
:10437000654153F10003094218BF46F0010613F4EA
:10438000007F0BD14FEA03314FEA0530340341EA95
:10439000155140EA16506FF003020AE04FEAC321BC
:1043A0004FEAC520F40241EA555140EA56506FF0F9
:1043B000020202EB2E4201EB025585EACE710AD0D1
:1043C0005FEA440C18BF24F0004450F1000041F1B2
:1043D000000120EAD47040F2FE7C624500D270BD3C
:1043E000A84214BF4FF080444FF04044002E08BF55
:1043F0000024BEF1806FA8BFA1F1C041BDE87040AC
:1044000080F282804FF0000001F1C04101F00041D4
:1044100070479EEA0C0F0CEA131518BF95EA0C0FB3
:1044200006D04FF0000081EA030E0EF0004170BD8F
:1044300000F01CF88900013E00F007B800F009B850
:104440004FEA430C5FEA5C5C08D081EA030100F0AC
:104450005BB84FEA410C5FEA5C5CF6D14FF00000BC
:10446000014970470000FF070000F87F0EF1020EBF
:104470002EF0030E5EF8046B364205D4012A43EB9E
:10448000030515F5001F12D8012841EB010C1CF59E
:10449000001F0CD80ED14FEAD17C15F5001F0CEB94
:1044A0004C0C0CF1020C08BF4CEBD37C04E04FF039
:1044B000080C01E04FEAD37C0CEB4C0526FA05F61C
:1044C00006F00706B6F1040C06D20EEB860CBDE82A
:1044D00070404CF0010C6047DFE80CF0090B020261
:1044E0004FF000414FF00000A1F5002170BD1946CA
:1044F0001046012851EB010418BFD4F5001484BF05
:10450000002001F0004170BD0808A0F500114FEA3D
:1045100031017047FCF713BBFCF748BC002000409A
:1045200000800000040000000800000004000000FB
:104530000800000000400000000004000002000429
:1045400000040008250027000010000800100000EB
:1045500000000000000000000000000000808080DB
:10456000808080800080000000909090000000001B
:1045700000000000004848FC484848FC484800004B
:10458000002070A8A0603028A8702000006092640D
:104590000810204C920C00000040A0A04040A890C1
:1045A0009068000000808080000000000000000093
:1045B00000408080808080808080804000804040FB
:1045C000404040404040408000A040A0000000002B
:1045D00000000000000000002020F8202000000063
:1045E000000000000000000000408000000000000B
:1045F0000000C000000000000000000000000000FB
:10460000008000000010101020204040808000003A
:104610000070888888888888887000000020E020E2
:104620002020202020200000007088080810204052
:1046300080F80000007088080830080888700000C2
:1046400000103030505090F81010000000F88080BA
:10465000F0880808887000000070888080F08888E2
:104660008870000000F80810102020404040000032
:10467000007088888870888888700000007088883A
:1046800088780808887000000000000080000000A2
:10469000008000000000000040000000004080009A
:1046A00000000010204080402010000000000000AA
:1046B00000F800F8000000000000008040201020FA
:1046C00040800000007088080810202000200000B2
:1046D00000001E00618040808E40924092408DC05C
:1046E000400060001F000000001010282844447C97
:1046F0008282000000F0888888F0888888F00000B6
:1047000000788480808080808478000000F0888435
:104710008484848488F0000000F8808080F08080A9
:1047200080F8000000F8808080F0808080800000A9
:1047300000788480809C84848C740000008484844D
:1047400084FC848484840000008080808080808059
:104750008080000000101010101010909060000079
:10476000008890A0C0C0A090888400000080808055
:104770008080808080F80000008282C6C6AAAA924B
:10478000928200000084C4C4A4A4948C8C84000091
:1047900000788484848484848478000000F884848D
:1047A00084F88080808000000078848484848494ED
:1047B0008C78040000F8848484F884848484000065
:1047C00000708880807008088870000000F8202041
:1047D000202020202020000000848484848484847D
:1047E000847800000082824444442828101000008D
:1047F0000000802080204440444044402A802A8099
:10480000110011000000000000828244281028449A
:1048100082820000008282442810101010100000D4
:1048200000FE02040810204080FE000000C08080CE
:1048300080808080808080C00080808040402020F8
:104840001010000000C0404040404040404040C088
:104850002050880000000000000000000000000060
:1048600000000000000000FC00804000000000008C
:1048700000000000000000007008788888780000C0
:1048800000808080F088888888F0000000000000A8
:104890007088808088700000000808087888888800
:1048A00088780000000000007088F88088700000A0
:1048B00000408080C0808080808000000000000078
:1048C00078888888887808F000808080B0C88888D8
:1048D0008888000000800000808080808080000048
:1048E00000800000808080808080808000808080C8
:1048F00090A0C0A090880000008080808080808090
:104900008080000000000000EC92929292920000E1
:1049100000000000B0C888888888000000000000FF
:10492000708888888870000000000000F0888888FF
:1049300088F08080000000007888888888780808DF
:1049400000000000C0808080808000000000000027
:10495000609040209060000000008080C0808080D7
:104960008040000000000000888888889868000067
:104970000000000088885050202000000000000047
:104980009292AAAA44440000000000009090606047
:10499000909000000000000048484848302020C0A7
:1049A00000000000F010204080F000002040404057
:1049B0004080404040402000008080808080808097
:1049C0008080800080404040402040404040800047
:1049D00000006498000000000000000002000000D9
:1049E00001000C000400180006002400050030003F
:1049F00007003C0005004800010054000200600070
:104A000002006C00030078000500840002009000A2
:104A100002009C000100A8000400B4000500C000D2
:104A20000300CC000500D8000500E4000500F000FC
:104A30000500FC0005000801050014010500200127
:104A400005002C010100380102004401040050015E
:104A500005005C0104006801050074010A00800182
:104A6000070098010500A4010600B0010600BC0182
:104A70000500C8010500D4010600E0010600EC01B4
:104A80000100F801040004020600100205001C02E7
:104A900007002802060034020600400206004C020D
:104AA00006005802060064020500700205007C0240
:104AB00006008802070094020B00A0020700B8025B
:104AC0000700C4020700D0020200DC020400E80272
:104AD0000200F4020500000306000C0302001803A4
:104AE000050024030500300305003C0305004803CE
:104AF000050054030200600305006C030500780301
:104B0000010084030100900305009C030100A80339
:104B10000700B4030500C0030500CC030500D8035B
:104B20000500E4030200F0030400FC030200080493
:104B3000050014040500200407002C0404003804B8
:104B4000050044040400500403005C0401006804F0
:104B500003007404060080040C207E00DC49000879
:104B600050450008000000000000000000000000A8
:104B700000000000000000000000000000C0C0C0F5
:104B8000C0C0C0C0C0C0C0C0C00000C0C0000000E5
:104B900000000000B8B050505000000000000000BD
:104BA0000000000000000000000000000000CC0039
:104BB000CC018C019803187FFF7FFE0670FFFCFF7D
:104BC000FC18C019C03980330063000000000000E9
:104BD0000000000000000018187FFFE0C0C060382F
:104BE0001E1A1B1B1B1B1FFEFC18180000000000D8
:104BF00000003C0C7E18E718C330C370E7607EC02D
:104C00003DC001BC037E03E706C30EC30CE7187E5C
:104C1000183C000000000000000000000000000040
:104C20000F003F003000600060006000300061FC59
:104C3000C1FCC030C030C030E07070E03FC00F80B9
:104C4000000000000000000000000000C0C0404064
:104C50004000000000000000000000000000000014
:104C60000000001C30306060C0C0C0C0C0C06060C8
:104C700030381C00000000000000E0703018180CF4
:104C80000C0C0C0C0C18183060C0800000000000E8
:104C9000001818D33C1CF75A180000000000000050
:104CA0000000000000000000000000000000000004
:104CB000000000000400040004000400FFF0FFF006
:104CC00006000600060006000600000000000000C6
:104CD00000000000000000000000000000000000D4
:104CE00000000000C0C080808000000000000000C4
:104CF0000000000000F8F8000000000000000000C4
:104D000000000000000000000000000000000000A3
:104D10000000C0C000000000000006000C001C00E5
:104D20001800380030006000E000C001C0018003BE
:104D300000030006000E000C001800180030007080
:104D4000006000C0000000000000001F003F8071F4
:104D5000C0E0E0C060C060C060C060C060C060C053
:104D600060C060E0E071C03F801F000000000000F4
:104D700000000000000000040C0C1C3C7CEC4C0CFF
:104D80000C0C0C0C0C0C0C000000000000000000CF
:104D90001F003F8071C0E0E0C060C060006000E0C4
:104DA00001C0038007000E001C0018003FE07FE0F8
:104DB00000000000000000000000000000000F00E4
:104DC0001F8039C030C000C000C001C0006000308A
:104DD0000030C030C030E07070E03FC00F80000095
:104DE0000000000000000000000000000040004043
:104DF00000C001C003C007C00EC01CC018C030C036
:104E000060C0E0C0FFF87FF800C000C000000000F4
:104E1000000000000000000000003F803F803000E4
:104E2000300030003F003F8041C000E00060006083
:104E3000006000E0E1C07F801E0000000000000074
:104E400000000000000000000300060004000C0049
:104E500018003F803FC070E0E070C030C030C0300C
:104E6000E07070E03FC01F80000000000000000004
:104E7000000000000000FFC0FFC0018001800300AF
:104E800003000700060006000C000C0018001800C4
:104E9000180030003000000000000000000000009A
:104EA000000000001F003F8071C060C060C060C093
:104EB000318060C0C060C060C060C060E0E071C0B0
:104EC0003F801F0000000000000000000000000004
:104ED00000001F803FC070E0E070C030C030C030C4
:104EE000E07070E03FC01FC00380030007000600B1
:104EF0000C000000000000000000000000000000A6
:104F00000000000000000000C0C00000C0C00000A1
:104F10000000000000000000000000000000006031
:104F20006000006060404080000000000000000061
:104F30000000020F1C78F0E0781C0F020000000057
:104F40000000000000000000000000FFFF0000FF64
:104F5000FF00000000000000000000000000000052
:104F6000C0E0781C0F071E38F0C0000000000000F1
:104F700000F8FE0E03030303073E3C303000003010
:104F80003000000000000000000007E01FF038388B
:104F9000700C600EC3B6CE66CC66D866D844F9CC29
:104FA00079587E763C1C1FF807E0000000000000E6
:104FB00000000000000000000100030003800380E7
:104FC00007C006C00CE00C601C7018301FF83FF8DA
:104FD000301C600C600CC0060000000000000000E7
:104FE000000000000000FC00FF00C380C180C18001
:104FF000C180C180C700C180C0C0C0C0C0C0C0C027
:10500000C380FF80FE0000000000000000000000E0
:105010000000000007F01FF03C0070006000E0009E
:10502000C000C000C000C000E000600070003C0094
:105030000FF007F00000000000000000000000007A
:105040000000FE00FF80C1E0C060C030C038C01862
:10505000C018C018C018C038C030C070C1E0FFC050
:10506000FF00000000000000000000000000FFFF43
:10507000C0C0C0C0C0FCFCC0C0C0C0C0FFFF0000BA
:1050800000000000000000FF80FF80C000C000C0E2
:1050900000C000C000FE00FE00C000C000C000C094
:1050A00000C000C000C000000000000000000000C0
:1050B000000000000007E01FE0380070006000C042
:1050C00000C000C1F8C1F8C018E018601870183CA2
:1050D000181FF807E00000000000000000000000BA
:1050E000000000C060C060C060C060C060C060C040
:1050F00060FFE0FFE0C060C060C060C060C060C032
:1051000060C060000000000000000000000000C05F
:10511000C0C0C0C0C0C0C0C0C0C0C0C0C0C0C0004F
:105120000000000000000C0C0C0C0C0C0C0C0C0C07
:105130000C0C0C1CF8F0000000000000000000C087
:10514000E0C0C0C180C300C600CC00D800FC00C7CE
:1051500000C180C0C0C060C060C020C030C030008E
:105160000000000000000000000000C0C0C0C0C07F
:10517000C0C0C0C0C0C0C0C0C0FEFE000000000073
:105180000000000000001002001806001806001CB5
:105190000E001C0E003C0F00361B00361B00373380
:1051A0000033330063338061E18061E18061C1805D
:1051B00060C180C0C0C0000000000000000000000E
:1051C0000000000000000000008030C030E030F03F
:1051D00030F830DC30CC30C630C730C3B0C1F0C09E
:1051E000F0C070C030C010C010000000000000000F
:1051F00000000000000000000007E0001FF8003C75
:105200001E00700700600300E00380C00180C00141
:1052100080C00180C00180E003806003007007004F
:105220003C1E001FF80007E0000000000000000026
:10523000000000000000000000000000FE00FF0071
:10524000C380C0C0C0C0C0C0C0C0C380FF00FE00DB
:10525000C000C000C000C000C000C00000000000CE
:105260000000000000000000000007E01FF83C3CC8
:10527000700E6006C007C003C003C003C0C3E0E3F4
:105280006076703C3C1C1FF807E400020000000040
:105290000000000000000000FC00FF00C700C38009
:1052A000C180C180C180C300DE00C380C0C0C040D7
:1052B000C060C020C020C03000000000000000001E
:1052C000000000003C7CE0C0C060380C0603030313
:1052D0000306FEF8000000000000000000FFC0FF11
:1052E000C00C000C000C000C000C000C000C000C9E
:1052F000000C000C000C000C000C000C0000000066
:105300000000000000000000000000C060C060C09D
:1053100060C060C060C060C060C060C060C060C08D
:1053200060C060E0E071C03F801F0000000000002E
:10533000000000000000000000E006600E700C306D
:105340001C381818181C300C300E60066007E0037B
:10535000C003C001800180000000000000000000C8
:10536000000000000000000000E1800C6180187067
:10537000C01830C0301860301860600C30600C30DD
:10538000C00638C00679C0036D8003ED8001C700F8
:1053900001C7000082000082000000000000000041
:1053A00000000000000000000000000060603060AD
:1053B00038C019C00D800F800700070007000D805E
:1053C0001D8018C038E030607030E0380000000008
:1053D00000000000000000000000E01C70383030C9
:1053E00018601CE00CC00780078003000300030066
:1053F000030003000300030003000000000000009E
:1054000000000000000000003FE03FE000C001801D
:1054100001800300070006000E000C0018001800B1
:10542000300070007FF0FFF000000000000000007E
:10543000000000F0F0C0C0C0C0C0C0C0C0C0C0C04C
:10544000C0C0C0C0C0C0C0F0F0C00060007000307C
:1054500000380018000C000E0006000700030001D1
:105460008001C000C000E000600030003000180083
:105470001C000C0006000000F8F81818181818187E
:10548000181818181818181818181818F8F800000C
:105490002070D88C00000000000000000000000018
:1054A00000000000000000000000000000000000FC
:1054B00000000000000000000000000000000000EC
:1054C0000000000000000000000000FFFEFFFE00E2
:1054D000000000000000E0300800000000000000B4
:1054E00000000000000000000000000000000000BC
:1054F00000000000000000001F003FC070F0E060EE
:10550000C060C060C060E06070E03FE01E6000000E
:10551000000000000000000000000000C000C0000B
:10552000C000C000C000DF00FFC0E0E0C070C030BD
:10553000C030C030C070F0E07FC01F8000000000AD
:10554000000000000000000000000000000000005B
:10555000000000001F803F807000E000C000C0001D
:10556000C000E00070003F801F80000000000000CD
:1055700000000000000000000060006000600060AB
:1055800000601F603FE070E0E060C060C060C0602D
:10559000E06070E03FC00F0000000000000000006D
:1055A00000000000000000000000000000000000FB
:1055B0000F803FC07060C030FFF0FFF0C000E0001F
:1055C00070003FC01FC0000000000000000000008D
:1055D00000000C1C383030FCFC30303030303030C3
:1055E000303000000000000000000000000000005B
:1055F00000000000000F003FC070F0E060C060C01D
:1056000060C060E06070E03FE01E60006000E001AC
:10561000C03FC03F0000000000C000C000C000C08C
:1056200000C000DE00FF80E1C0C0C0C0C0C0C0C07C
:10563000C0C0C0C0C0C0C0C0C000000000000000AA
:10564000000000000000C0C00000C0C0C0C0C0C05A
:10565000C0C0C0C0C000000000000000001818005A
:10566000001818181818181818181818181838F0DA
:10567000E000000000C000C000C000C000C000C1C9
:1056800080C300C600CC00DE00E700C180C080C03F
:1056900080C0C0C0C000000000000000000000008A
:1056A00000C0C0C0C0C0C0C0C0C0C0C0C0C0C0C0BA
:1056B000C00000000000000000000000000000002A
:1056C00000000000000000000000001E1E007F7FA0
:1056D00080E1E180C0C0C0C0C0C0C0C0C0C0C0C008
:1056E000C0C0C0C0C0C0C0C0C0C0C0C000000000BA
:1056F00000000000000000000000000000000000AA
:105700000000000000000000001E007F80E180C05B
:10571000C0C0C0C0C0C0C0C0C0C0C0C0C0C0C00049
:105720000000000000000000000000000000000079
:10573000000000000000001F803FC070E0E070C06B
:1057400030C030C030E07070E03FC01F000000008B
:105750000000000000000000000000000000000049
:1057600000000000001F003FC0E0E0C070C030C07B
:1057700030C030C070E0E0FFC0DF00C000C000C03B
:1057800000C000C000000000000000000000000099
:105790000000000F003FC070F0E060C060C060C05B
:1057A00060E06070E03FE01F60006000600060004B
:1057B000600060000000000000001878E0C0C0C079
:1057C000C0C0C0C0C0000000000000000000000019
:1057D000007CFCC0C06018060606FEF80000000051
:1057E00000000000000020207CFC606060606060C1
:1057F0006060600000000000000000000000000089
:10580000000000000000C0C0C0C0C0C0C0C0C0C018
:10581000C0C0C0C0C0C061C07F801F0000000000C9
:105820000000000000000000000000000000000078
:1058300000000000E030606030E030C019C0198026
:105840000F000F000600060000000000000000002E
:105850000000000000000000000000000000000048
:10586000000000000000000000C040406040C07028
:10587000E18030E18019F30019B3000DB6000F1E6E
:1058800000071C00070C00020800020000000000D6
:105890000000000000000000000000000000000008
:1058A0000000000000000060C071803B801F000EFF
:1058B000000E001F003B00718061C0C0E0000000CE
:1058C00000000000000000000000000000000000D8
:1058D0000000000000C030606030E030C019C01926
:1058E000800F800F00070006000E000C001C00183F
:1058F0000038003000000000000000000000000040
:105900000000003FC03FC00380070006000C001CE1
:1059100000380030007FE0FFE000000000000000E1
:10592000000000000018303030303030303030C0EF
:10593000303030303030303030180000C0C0C0C09F
:10594000C0C0C0C0C0C0C0C0C0C0C0C0C0C0C0C057
:10595000C00000C0406060606060606060186060AF
:1059600060606060606060C0000070FE1C0000004D
:105970000000000000000000000000000000000027
:10598000020000000200170005002E001000450074
:105990000800730010008A000E00B8000200E60044
:1059A0000600FD000600140108002B010C00420156
:1059B000020070010500870102009E010F00B50181
:1059C0000B00E301060011020B0028020C00560236
:1059D0000D0084020B00B2020C00E0020A000E036C
:1059E0000B003C030C006A03020098030300AF03A2
:1059F0000800C6030800DD030800F40308000B04D8
:105A00000F0022040F0050040A007E040C00AC04B6
:105A10000D00DA040800080509001F050D004D05FA
:105A20000B007B050200A9050600C0050C00D70588
:105A30000700050612001C060C00610611008F0607
:105A40000A00D406100002070C00300708005E07A9
:105A50000A0075070B00A3070F00D1071600FF0708
:105A60000D0044080E0072080C00A0080400CE08C7
:105A70000F00E5080500130906002A090F00410977
:105A800005006F090C0086090C00B4090900E20941
:105A90000B00100A0C003E0A06006C0A0C00830A78
:105AA0000A00B10A0200DF0A0500F60A0A000D0B1F
:105AB00002003B0B1200520B0A00970B0C00C50BA7
:105AC0000C00F30B0C00210C05004F0C0700660CBA
:105AD00006007D0C0A00940C0C00C20C1200F00CA5
